:100000000C94007E189518951895189518951895C4
:100010001895189518951895189518951895189578
:100020001895189518951895189518951895189568
:100030001895189518951895189518951895189558
:100040001895189518951895189518951895189548
:100050001895189518951895189518951895189538
:100060001895189518951895189518951895189528
:010070001877
:10FC00000FEF0DBF03E00EBFC0E0D9E00E94107EF1
:10FC10000E94517E0E940E7E0C94127E0C94127EE5
:10FC200001E008950C94157E00008895FECFF02F1A
:10FC3000E0E047B740FDFDCF43E047BFE89547B759
:10FC400040FDFDCF41E147BFE89508952C2E3D2EA4
:10FC5000D1E0C0E0F0E0E0E000E80990199047B79B
:10FC600040FDFDCF41E047BFE89532960150A9F72E
:10FC7000C22DD32D0895F02F47B740FDFDCF45E0AD
:10FC800047BFE89547B740FDFDCF41E147BFE89545
:10FC900008950895529805B70F7E05BF5A9A529855
:10FCA0000895BA93AA939A938A930E94497E0E94D8
:10FCB0004A7E4A9904C04A9902C04A9B02C00C94E9
:10FCC000000000E009C0F8940E94807F05E510E084
:10FCD0000E94527F90E001E0102F1050A1F31A957E
:10FCE00049F01A95B1F11A9509F452C01A9509F420
:10FCF00064C0F2CF80E00E94457F0023E1F30E94C0
:10FD00006C7F202F082F10E0F801E050FF4F208378
:10FD1000082F802F8395023070F30E94687F0023A4
:10FD200021F400910001053531F00AEA10E00E944B
:10FD3000527F0AE0D1CFA0910101B0E01091020101
:10FD400000E0A00FB11F05E510E00E94527F02E025
:10FD5000C3CF80E00E94457F0023E1F30E946C7FC7
:10FD6000202F082F10E0F801E050FF4F2083082FCC
:10FD7000802F83950F3F70F30E94687F002331F03E
:10FD80000AEA10E00E94527F0AE0A6CF03E0A4CF67
:10FD9000092F0E94177E0E94267E092F0E943B7E1B
:10FDA000092F10E00E94527F092F902F93950B3F4F
:10FDB00011F404E091CF02E08FCF20E030E090E03A
:10FDC00080E0192F00E0E82FF0E0E00FF11F049130
:10FDD00010E0200F311F082F802F83950F3F88F3ED
:10FDE000092F902F93950B3F58F32A173B0729F4BF
:10FDF00005E510E00E94527F04C00AEA10E00E946C
:10FE0000527F0AE069CFE0ECF0E020812D7F208373
:10FE1000202F2093C400012F10E00F700093C50025
:10FE20000895102B122B032F0670012B042B009327
:10FE3000C20033FB36F4E1ECF0E0008104600083A3
:10FE40000895E1ECF0E000810B7F00830895E1EC80
:10FE5000F0E00081006100830895E1ECF0E00081B2
:10FE6000086000830895E1ECF0E000810F7B0083DF
:10FE70000895E1ECF0E000810F7D00830895E1EC4E
:10FE8000F0E000810F7700830895E0ECF0E000815E
:10FE9000000F00E0001F0895E0ECF0E000810F7B10
:10FEA00000830895E1ECF0E0208122FF0EC0212FB5
:10FEB00020FF06C0E1ECF0E020812160208305C036
:10FEC000E1ECF0E020812E7F20830093C6000895AE
:10FED0000091C0000C71089500E010E0E1ECF0E04A
:10FEE000208122FF07C0E1ECF0E0208121FF02C069
:10FEF00000E011E02091C60030E0022B132B0895A2
:10FF000003E310E080DF40E036E020E010E000E0B6
:10FF100088DFA3DF9CDFA7DFACDFB1DFBDDF0895A3
:02FFFE00CF8FA3
:00000001FF
